:020000040800F2
:1000000000500020F1130008B5100008BB100008D4
:10001000C1100008C7100008CD1000080000000043
:10002000000000000000000000000000D3100008E5
:10003000DF10000800000000EB100008F7100008B7
:10004000391400083914000839140008391400085C
:10005000391400083914000839140008391400084C
:10006000391400083914000839140008391400083C
:10007000391400083914000839140008391400082C
:10008000391400083914000839140008391400081C
:10009000391400083914000839140008391400080C
:1000A00039140008391400083914000839140008FC
:1000B0000511000839140008391400083914000823
:1000C00039140008391400083914000839140008DC
:1000D00039140008391400083914000839140008CC
:1000E0003914000839140008391400080000000011
:1000F0000000000000000000000000000000000000
:0C01000000000000000000005FF808F1A3
:10010C0010B5054C237833B9044B13B10448AFF345
:10011C0000800123237010BD7C0000200000000033
:10012C006831000808B5034B1BB103490348AFF312
:10013C00008008BD0000000080000020683100082D
:10014C0080B483B000AF78607B68042B01DD0023A2
:10015C000DE0094A7B6852F82330002B06D0064A82
:10016C007B68002142F82310012300E0002318468D
:10017C000C37BD4680BC70479800002080B582B01B
:10018C0000AF00237B6069E0384A7B6852F823207B
:10019C0037497B6841F82320364A7B6852F8232084
:1001AC0032497B6841F823207B68032B36D801A2A7
:1001BC0052F823F0D1010008E7010008FD01000806
:1001CC001302000801212C4801F026FC03461946B5
:1001DC00284A7B6842F8231021E00221264801F0CE
:1001EC001BFC03461946234A7B6842F8231016E091
:1001FC001021214801F010FC034619461D4A7B686A
:10020C0042F823100BE001211C4801F005FC0346C9
:10021C001946184A7B6842F8231000E000BF144AC4
:10022C007B6852F8232011497B6851F823309A429D
:10023C0011D10E4A7B6852F823200E497B6851F885
:10024C0023309A4207D10B4A7B6852F823200C4981
:10025C007B6841F823207B6801337B607B68032B30
:10026C0092DD00BF00BF0837BD4680BD20000020D6
:10027C00100000203000002000080140000C01405C
:10028C004000002080B582B000AF00237B6057E0B7
:10029C002F4A7B6852F82330162B3BD0162B45DCAB
:1002AC00142B02D0152B16D040E02A4A7B6852F84A
:1002BC002330002B3CD1284A7B68012142F82310C3
:1002CC0040F6B831786800F027FF214A7B68152189
:1002DC0042F823102CE0786800F064FF0346002BF2
:1002EC0009D01E4A7B68012142F82310184A7B680A
:1002FC00162142F82310174A7B6852F82330012B41
:10030C0018D1786800F022FF114A7B68142142F85A
:10031C0023100FE00F4A7B6852F82330012B0BD1CE
:10032C000B4A7B68142142F8231005E000BF04E05F
:10033C0000BF02E000BF00E000BF7B6801337B60C0
:10034C007B68032BA4DD00BF00BF0837BD4680BD12
:10035C00000000204000002098000020A800002091
:10036C0080B500AF294B1B680C2B30D00C2B43DC19
:10037C000A2B02D00B2B15D03EE0042000F012FF0C
:10038C000346002B3AD0214B0C221A601F4B1B68E2
:10039C00184600F051FF1E4B1B681946042000F054
:1003AC00BBFE2BE0042000F0FDFE0346002B27D003
:1003BC00164B0A221A60154B1B68184600F03CFFBE
:1003CC00144B1B681946042000F0A6FE18E004200C
:1003DC0000F0E8FE0346002B14D00C4B0B221A60E5
:1003EC000A4B1B68184600F027FF0B4B1B6819467D
:1003FC00042000F091FE05E000BF04E000BF02E025
:10040C0000BF00E000BF00BF80BD00BF5000002057
:10041C0060000020580000205C00002080B500AF78
:10042C00294B1B680C2B30D00C2B43DC0A2B02D035
:10043C000B2B15D03EE0052000F0B4FE0346002B3C
:10044C003AD0214B0C221A601F4B1B68184600F047
:10045C0045FF1E4B1B681946052000F05DFE2BE086
:10046C00052000F09FFE0346002B27D0164B0A22D6
:10047C001A60154B1B68184600F030FF144B1B68B4
:10048C001946052000F048FE18E0052000F08AFE11
:10049C000346002B14D00C4B0B221A600A4B1B6822
:1004AC00184600F01BFF0B4B1B681946052000F08B
:1004BC0033FE05E000BF04E000BF02E000BF00E037
:1004CC0000BF00BF80BD00BF5400002060000020B2
:1004DC00580000205C00002080B500AF9D4B1B68CD
:1004EC00042B00F2AC8101A252F823F00D05000898
:1004FC0069050008F9050008AD0600088907000821
:10050C00954B0A221A60944B1B68184600F094FE17
:10051C00924B0C221A60914B1B68184600F0DEFEC1
:10052C008F4B1B681946042000F0F6FD8D4B1B68A1
:10053C001946052000F0F0FD042000F01FFE0346D4
:10054C00184600F097F9052000F018FE03461846EF
:10055C0000F0BEF97F4B01221A6079E1FFF700FF32
:10056C00FFF75CFF042000F009FE0346184600F07C
:10057C0081F9052000F002FE0346184600F0A8F9A8
:10058C000120FFF7DDFD0346002B00F05A8104200B
:10059C0000F0DCFD052000F0D9FD6F4B0A221A603B
:1005AC006D4B1B68184600F047FE6C4B0A221A6014
:1005BC006A4B1B68184600F091FE6B4B00221A60C8
:1005CC004FF4FA71062000F0A7FD654B1B68674AD3
:1005DC0013604FF47A7000F04DF9644B1B681846A9
:1005EC0000F076F95B4B02221A602AE15A4B1B6829
:1005FC00184600F0CDFE0220FFF7A2FD0346002BAB
:10060C0014D05A4B1B6803F57A72594B83FB0213B7
:10061C005913D317CB1A574901FB03F3D31A534A77
:10062C001360524B1B68184600F052F90320FFF779
:10063C0087FD0346002B03D04C4B1B68484A1360C4
:10064C000120FFF77DFD0346002B00F0FC80424BA0
:10065C000B221A60404B1B68184600F0EDFD3F4B17
:10066C000B221A603D4B1B68184600F037FE3E4BC0
:10067C0000221A604FF4FA71062000F04DFD3E4B3B
:10068C001B683A4A13604FF4FA6000F0F3F8374BEA
:10069C001B68184600F01CF92E4B03221A60D2E09E
:1006AC002D4B1B68184600F073FE0220FFF748FD27
:1006BC000346002B14D02D4B1B6803F57A722C4B80
:1006CC0083FB02135913D317CB1A2A4901FB03F3EB
:1006DC00D31A264A1360254B1B68184600F0F8F80D
:1006EC000320FFF72DFD0346002B03D01F4B1B6887
:1006FC00214A13600120FFF723FD0346002B00F075
:10070C00A480154B0C221A60134B1B68184600F082
:10071C0093FD124B0C221A60104B1B68184600F00C
:10072C00DDFD114B00221A604FF4FA71062000F027
:10073C00F3FC0C4B1B680D4A136040F6B83000F00C
:10074C0099F80A4B1B68184600F0C2F8014B0422BA
:10075C001A607AE0B80000205000002054000020FD
:10076C0058000020600000204C0100206400002094
:10077C0089B5F814A08601005C000020354B1B687D
:10078C00184600F005FE0220FFF7DAFC0346002BAA
:10079C0014D0314B1B6803F57A72304B83FB021378
:1007AC005913D317CB1A2E4901FB03F3D31A2A4A38
:1007BC001360294B1B68184600F08AF80320FFF7DA
:1007CC00BFFC0346002B03D0234B1B68254A136048
:1007DC000120FFF7B5FC0346002B38D0062000F0B3
:1007EC00B5FC1C4B0A221A601A4B1B68184600F009
:1007FC0023FD1D4B0C221A601B4B1B68184600F086
:10080C006DFD1A4B1B681946042000F085FC154B36
:10081C001B681946052000F07FFC042000F0AEFC9C
:10082C000346184600F026F8052000F0A7FC034606
:10083C00184600F04DF80E4B01221A6007E000BF7D
:10084C0006E000BF04E000BF02E000BF00E000BF14
:10085C0000BF80BD500000206400002089B5F81452
:10086C00A0860100600000205400002058000020E9
:10087C00B800002080B483B000AF78607B68114A68
:10088C0082FB03129211DB17D31A7B607B680E4A32
:10089C0082FB03129210DB17D31A0C4A136079688F
:1008AC00094B83FB01239A10CB17D21A13469B00DA
:1008BC0013445B00CA1A054B5A6000BF0C37BD4687
:1008CC0080BC7047D34D621067666666BC00002022
:1008DC0080B483B000AF78607B68114A82FB03124E
:1008EC009211DB17D31A7B607B680E4A82FB0312D2
:1008FC009210DB17D31A0C4A93607968094B83FB6F
:10090C0001239A10CB17D21A13469B0013445B0099
:10091C00CA1A054BDA6000BF0C37BD4680BC704765
:10092C00D34D621067666666BC00002080B500AFD0
:10093C0000F07EFD00F01EF800F020F900F05CF8ED
:10094C0000F0A6F8084801F0CFFC0021074801F0A0
:10095C0075FD074B00221A60FFF794FCFFF7BCFDF6
:10096C0000F008FAF8E700BF9801002050010020C1
:10097C00B800002080B590B000AF07F11803282212
:10098C000021184602F0E2FB3B1D00221A605A605F
:10099C009A60DA601A610223BB610123BB621023E7
:1009AC00FB6202237B630023BB634FF46013FB6386
:1009BC0007F11803184601F05FF80346002B01D02D
:1009CC0000F056F90F237B600223BB600023FB6011
:1009DC004FF480633B6100237B613B1D0221184671
:1009EC0001F0CAFA0346002B01D000F041F900BF18
:1009FC004037BD4680BD000080B586B000AF07F122
:100A0C00080300221A605A609A60DA603B460022A2
:100A1C001A605A601D4B4FF080421A601B4B4FF608
:100A2C00FF125A60194B00229A60184B0A22DA60A6
:100A3C00164B00221A61154B00229A61134801F0E3
:100A4C0003FC0346002B01D000F012F94FF4805345
:100A5C00BB6007F1080319460C4801F057FF034629
:100A6C00002B01D000F004F900233B6000237B60D5
:100A7C003B461946054802F0D5FA0346002B01D037
:100A8C0000F0F6F800BF1837BD4680BD9801002075
:100A9C0080B58EB000AF07F1280300221A605A60AF
:100AAC009A60DA6007F1200300221A605A603B1D3D
:100ABC0000221A605A609A60DA601A615A619A616F
:100ACC002C4B2D4A1A602B4B3F225A60294B00228B
:100ADC009A60284B40F2E732DA60264B00221A610A
:100AEC00244B00229A61234801F0AEFB0346002BF5
:100AFC0001D000F0BDF84FF48053BB6207F128031E
:100B0C0019461C4801F002FF0346002B01D000F0EF
:100B1C00AFF8184801F03AFC0346002B01D000F066
:100B2C00A7F800233B6200237B6207F120031946E0
:100B3C00104802F077FA0346002B01D000F098F829
:100B4C0060237B600023BB600023FB6000237B6180
:100B5C003B1D00221946074801F01AFE0346002BE4
:100B6C0001D000F085F8034800F06CFA00BF38376C
:100B7C00BD4680BD500100200004004080B586B009
:100B8C0000AF07F1080300221A605A609A60DA601D
:100B9C002E4B9B692D4A43F0040393612B4B9B69AD
:100BAC0003F004037B607B68284B9B69274A43F066
:100BBC0008039361254B9B6903F008033B603B687A
:100BCC0000224FF48761224800F03DFF00224FF4D1
:100BDC00A061204800F037FF1323BB600023FB60AB
:100BEC0001233B6107F1080319461A4800F090FDF8
:100BFC000123BB600023FB6001233B6107F1080369
:100C0C001946134800F084FD4FF48763BB60012341
:100C1C00FB6000233B6102237B6107F1080319464B
:100C2C000B4800F075FD4FF4A063BB600123FB6023
:100C3C0000233B6102237B6107F108031946054839
:100C4C0000F066FD00BF1837BD4680BD00100240A5
:100C5C00000C01400008014080B582B000AF786004
:100C6C0000F0BAFAFFF78AFA00BF0837BD4680BD1C
:100C7C0080B400AF72B600BFFEE7000080B500AFD5
:100C8C00064BC8221A60064B01221A604FF4FA7107
:100C9C00082000F041FA00BF80BD00BFCC0000204E
:100CAC00D000002080B500AF054B00221A60054B28
:100CBC0000221A60082000F049FA00BF80BD00BF76
:100CCC00CC000020D000002080B582B000AF78604E
:100CDC007B680C2B16D07B680C2B2DDC7B680A2BCD
:100CEC0003D07B680B2B1AD026E001224FF48061D5
:100CFC00144800F0A8FE00224FF48071124800F056
:100D0C00A2FE1AE000224FF480610E4800F09BFE18
:100D1C0001224FF480710C4800F095FE0DE0012289
:100D2C004FF48061074800F08EFE01224FF4807171
:100D3C00054800F088FE00E000BF00BF0837BD4644
:100D4C0080BD00BF000C01400008014080B500AF21
:100D5C0000224FF48061054800F075FE00224FF42C
:100D6C008071034800F06FFE00BF80BD000C014095
:100D7C000008014080B500AF764B1B681E3B032B6F
:100D8C0000F2DC8001A252F823F000BFA90D00088C
:100D9C00310E0008AF0E0008350F00080020FFF7D9
:100DAC00CFF90346002B31D06B4B1A686B4B1B6889
:100DBC001A446B4B1B6813441946072000F0ACF91E
:100DCC00684B1B680A2B06D0624B1F221A600A2044
:100DDC00FFF77AFF1AE0042000F0D0F90246624BCC
:100DEC001B689A420ADC5F4B1B680A2B06D1594BD5
:100DFC001F221A600A20FFF767FF07E0554B2022DD
:100E0C001A60FFF73BFF0C20FFF75EFF574B1B6888
:100E1C00012B00F095804F4B21221A600B20FFF71D
:100E2C0053FF8DE00020FFF78BF90346002B0BD00E
:100E3C00494B1A68494B1B681A44494B1B681344AD
:100E4C001946072000F068F9072000F0ABF90346BB
:100E5C00002B04D0FFF77AFF3E4B1E221A600420B1
:100E6C0000F08CF90246404B1B689A420BDD3D4B5F
:100E7C001B680A2B07D1FFF701FF364B20221A60A3
:100E8C000C20FFF721FF394B1B68012B5AD0072090
:100E9C0000F05CF90B20FFF717FF2E4B21221A6094
:100EAC0050E00020FFF74CF90346002B0BD02A4BE7
:100EBC001A682A4B1B681A44294B1B6813441946A1
:100ECC00072000F029F9072000F06CF90346002BED
:100EDC0006D0FFF7E7FEFFF739FF1E4B1E221A6004
:100EEC00042000F04BF902461F4B1B689A420BDCA6
:100EFC001C4B1B680A2B07D1FFF7D4FE154B1F2286
:100F0C001A600A20FFF7E0FE184B1B68012B1BD060
:100F1C00FFF7C8FE072000F019F90B20FFF7D4FEED
:100F2C000C4B21221A600FE0104B1B68012B0DD1CA
:100F3C00FFF70CFF074B1E221A6007E000BF06E00C
:100F4C0000BF04E000BF02E000BF00E000BF00BF34
:100F5C0080BD00BF68000020580000205C0000200D
:100F6C0060000020500000206C000020B800002021
:100F7C0080B485B000AF154B9B69144A43F0010354
:100F8C009361124B9B6903F00103BB60BB680F4B71
:100F9C00DB690E4A43F08053D3610C4BDB6903F0E1
:100FAC0080537B607B680A4B5B68FB60FB6823F0BB
:100FBC00E063FB60FB6843F00073FB60044AFB6872
:100FCC00536000BF1437BD4680BC70470010024010
:100FDC000000014080B584B000AF78607B681B686E
:100FEC00B3F1804F14D1154BDB69144A43F0010364
:100FFC00D361124BDB6903F00103FB60FB68002239
:10100C0000211C2000F04DFB1C2000F066FB10E0C2
:10101C007B681B680A4A93420BD1084BDB69074A71
:10102C0043F00203D361054BDB6903F00203BB60A1
:10103C00BB6800BF1037BD4680BD00BF001002402A
:10104C000004004080B588B000AF786007F1100351
:10105C0000221A605A609A60DA607B681B680F4A3B
:10106C00934217D10E4B9B690D4A43F004039361D5
:10107C000B4B9B6903F00403FB60FB6840233B6153
:10108C0002237B610223FB6107F11003194605481B
:10109C0000F03EFB00BF2037BD4680BD0004004081
:1010AC00001002400008014080B400AFFEE780B49D
:1010BC0000AFFEE780B400AFFEE780B400AFFEE700
:1010CC0080B400AFFEE780B400AF00BFBD4680BC6B
:1010DC00704780B400AF00BFBD4680BC704780B481
:1010EC0000AF00BFBD4680BC704780B500AF00F0BC
:1010FC00E5F900BF80BD000080B500AF024801F0EB
:10110C003FFA00BF80BD00BF9801002080B400AF43
:10111C0000BFBD4680BC704780B483B000AF786020
:10112C0039603B68074A82FB03129210DB17D21A14
:10113C0005497B6841F8232000BF0C37BD4680BCB5
:10114C00704700BF67666666D400002080B483B029
:10115C0000AF7860074A7B68002142F82310064AEA
:10116C007B68002142F8231000BF0C37BD4680BCC1
:10117C00704700BFD40000201001002080B483B061
:10118C0000AF7860064A7B6852F8232013469B0018
:10119C0013445B0018460C37BD4680BC704700BF3B
:1011AC00D400002080B483B000AF7860094A7B681B
:1011BC0052F82330002B06D0064A7B68002142F8F7
:1011CC002310012300E0002318460C37BD4680BCD9
:1011DC00704700BF1001002080B483B000AF002323
:1011EC007B601CE0124A7B6852F82330002B13DD25
:1011FC000F4A7B6852F823305A1E0D497B6841F820
:10120C0023200B4A7B6852F82330002B04DC094A5C
:10121C007B68012142F823107B6801337B607B687B
:10122C000E2BDFDD00BF00BF0C37BD4680BC704706
:10123C00D40000201001002080B582B000AF78608F
:10124C007B680C2B21D07B680C2B2ADC7B680A2B4F
:10125C0003D07B680B2B0CD023E001224FF4806170
:10126C00124800F0F0FB00220821114800F0EBFBC3
:10127C0018E001224FF480610C4800F0E4FB0122DD
:10128C0008210B4800F0DFFB0CE000224FF48061DA
:10129C00064800F0D8FB01220821054800F0D3FBDA
:1012AC0000E000BF00BF0837BD4680BD000801400C
:1012BC00000C014080B500AF00224FF4806105485E
:1012CC0000F0C1FB00220821034800F0BCFB00BF6A
:1012DC0080BD00BF00080140000C014080B582B009
:1012EC0000AF78607B680A3B042B39D801A252F816
:1012FC0023F000BF151300082B130008411300083E
:10130C006D1300085713000801222021174800F024
:10131C009AFB00221021154800F095FB21E00122D8
:10132C002021124800F08FFB012210210F4800F001
:10133C008AFB16E0002220210C4800F084FB0122DD
:10134C0010210A4800F07FFB0BE000222021074807
:10135C0000F079FB00221021044800F074FB00E03F
:10136C0000BF00BF0837BD4680BD00BF000C014068
:10137C0080B500AF00222021044800F064FB00225D
:10138C001021024800F05FFB00BF80BD000C014043
:10139C0080B582B000AF78600620FFF703FF0346EC
:1013AC00002B19D00E4B1B68002B09D07868FFF767
:1013BC0043FF7868FFF792FF094B00221A6006E0A2
:1013CC00FFF778FFFFF7D4FF054B01221A604FF4AB
:1013DC00FA710620FFF7A0FE00BF0837BD4680BD9E
:1013EC004C0100200C480D490D4A002302E0D45852
:1013FC00C4500433C4188C42F9D30A4A0A4C002353
:10140C0001E013600432A242FBD3FFF77FFE01F030
:10141C0079FEFFF78BFA7047000000207C0000205B
:10142C00A83100087C000020E4010020FEE7000049
:10143C0080B500AF084B1B68074A43F010031360DC
:10144C00032000F023F90F2000F008F8FFF790FDBF
:10145C000023184680BD00BF0020024080B582B03A
:10146C0000AF7860124B1A68124B1B7819464FF478
:10147C007A73B3FBF1F3B2FBF3F3184600F03BF9CC
:10148C000346002B01D001230EE07B680F2B0AD8FA
:10149C00002279684FF0FF3000F003F9064A7B68B0
:1014AC001360002300E0012318460837BD4680BDB9
:1014BC0070000020780000207400002080B400AF81
:1014CC00054B1B781A46054B1B681344034A1360E3
:1014DC0000BFBD4680BC704778000020E0010020B2
:1014EC0080B400AF024B1B681846BD4680BC7047E9
:1014FC00E001002080B485B000AF78607B6803F019
:10150C000703FB600C4BDB68BB60BA684FF6FF034C
:10151C001340BB60FB681A02BB68134343F0BF6304
:10152C0043F40033BB60044ABB68D36000BF14377C
:10153C00BD4680BC704700BF00ED00E080B400AF3A
:10154C00044BDB681B0A03F007031846BD4680BC3E
:10155C00704700BF00ED00E080B483B000AF0346DD
:10156C00FB7197F90730002B0BDBFB7903F01F02A3
:10157C00064997F907305B09012000FA02F241F89D
:10158C00232000BF0C37BD4680BC704700E100E053
:10159C0080B483B000AF03463960FB7197F9073014
:1015AC00002B0ADB3B68DAB20C4997F907301201C1
:1015BC00D2B20B4483F800230AE03B68DAB2084944
:1015CC00FB7903F00F03043B1201D2B20B441A76E1
:1015DC0000BF0C37BD4680BC704700BF00E100E087
:1015EC0000ED00E080B489B000AFF860B9607A60BB
:1015FC00FB6803F00703FB61FB69C3F10703042BD2
:10160C0028BF0423BB61FB690433062B02D9FB6999
:10161C00033B00E000237B614FF0FF32BB6902FA11
:10162C0003F3DA43BB681A407B699A404FF0FF31F1
:10163C007B6901FA03F3D9437B680B4013431846CB
:10164C002437BD4680BC704780B582B000AF78604F
:10165C007B68013BB3F1807F01D301230FE00A4A81
:10166C007B68013B53600F214FF0FF30FFF790FF79
:10167C00054B00229A60044B07221A60002318467F
:10168C000837BD4680BD00BF10E000E080B582B0D9
:10169C0000AF78607868FFF72DFF00BF0837BD46B4
:1016AC0080BD80B586B000AF0346B9607A60FB732D
:1016BC0000237B61FFF742FF78617A68B96878692B
:1016CC00FFF790FF024697F90F3011461846FFF7C7
:1016DC005FFF00BF1837BD4680BD80B582B000AF3C
:1016EC000346FB7197F907301846FFF735FF00BF2B
:1016FC000837BD4680BD80B582B000AF7860786891
:10170C00FFF7A2FF034618460837BD4680BD000010
:10171C0080B48BB000AF7860396000237B6200230B
:10172C003B6269E101227B6A02FA03F3FB613B68CD
:10173C001B68FA691340BB61BA69FB699A4240F0B5
:10174C0058813B685B689A4A93425ED0984A9342B0
:10175C0075D8984A934258D0964A93426FD8964A75
:10176C00934252D0944A934269D8944A93424CD0B3
:10177C00924A934263D8924A934246D0904A9342FB
:10178C005DD8122B2AD8122B59D801A252F823F06B
:10179C0017180008F117000803180008451800086E
:1017AC004B1800084B1800084B1800084B18000881
:1017BC004B1800084B1800084B1800084B18000871
:1017CC004B1800084B1800084B1800084B18000861
:1017DC004B180008F91700080D180008794A9342B5
:1017EC0013D02CE03B68DB683B6229E03B68DB688C
:1017FC0004333B6224E03B68DB6808333B621FE048
:10180C003B68DB680C333B621AE03B689B68002B3F
:10181C0002D104233B6213E03B689B68012B05D18A
:10182C0008233B627B68FA691A6109E008233B6272
:10183C007B68FA695A6103E000233B6200E000BF59
:10184C00BB69FF2B01D87B6801E07B6804337B61AB
:10185C00BB69FF2B02D87B6A9B0002E07B6A083BCA
:10186C009B003B617B691A680F213B6901FA03F30A
:10187C00DB431A40396A3B6901FA03F31A437B696B
:10188C001A603B685B6803F08053002B00F0B1805A
:10189C004D4B9B694C4A43F0010393614A4B9B6946
:1018AC0003F00103BB60BB68484A7B6A9B080233A8
:1018BC0052F82330FB607B6A03F003039B000F227A
:1018CC0002FA03F3DB43FA681340FB607B68404A7F
:1018DC00934213D07B683F4A93420DD07B683E4ABB
:1018EC00934207D07B683D4A934201D1032306E023
:1018FC00042304E0022302E0012300E000237A6ABF
:10190C0002F0030292009340FA681343FB602F49E4
:10191C007B6A9B080233FA6841F823203B685B68BA
:10192C0003F48033002B06D02D4B1A682C49BB696D
:10193C0013430B6006E02A4B1A68BB69DB4328494A
:10194C0013400B603B685B6803F40033002B06D03C
:10195C00234B5A682249BB6913434B6006E0204B6A
:10196C005A68BB69DB431E4913404B603B685B689C
:10197C0003F48013002B06D0194B9A681849BB69E5
:10198C0013438B6006E0164B9A68BB69DB43144922
:10199C0013408B603B685B6803F40013002B21D071
:1019AC000F4BDA680E49BB691343CB6021E000BFD3
:1019BC000000321000003110000022100000211035
:1019CC000000121000001110001002400000014035
:1019DC0000080140000C01400010014000140140BF
:1019EC00000401400B4BDA68BB69DB430949134027
:1019FC00CB607B6A01337B623B681A687B6A22FA94
:101A0C0003F3002B7FF48EAE00BF00BF2C37BD4616
:101A1C0080BC70470004014080B485B000AF786092
:101A2C000B467B807B689A687B881340002B02D026
:101A3C000123FB7301E00023FB73FB7B1846143777
:101A4C00BD4680BC704780B483B000AF78600B4655
:101A5C007B8013467B707B78002B03D07A887B6865
:101A6C001A6103E07B881A047B681A6100BF0C378B
:101A7C00BD4680BC7047000080B586B000AF786072
:101A8C007B68002B01D101236CE27B681B6803F09F
:101A9C000103002B00F08780924B5B6803F00C0372
:101AAC00042B0CD08F4B5B6803F00C03082B12D16A
:101ABC008C4B5B6803F48033B3F5803F0BD1894BBF
:101ACC001B6803F40033002B6CD07B685B68002B25
:101ADC0068D1012346E27B685B68B3F5803F06D191
:101AEC00804B1B687F4A43F4803313602EE07B6885
:101AFC005B68002B0CD17B4B1B687A4A23F4803338
:101B0C001360784B1B68774A23F4802313601DE025
:101B1C007B685B68B3F5A02F0CD1724B1B68714AC4
:101B2C0043F4802313606F4B1B686E4A43F480337D
:101B3C0013600BE06B4B1B686A4A23F48033136011
:101B4C00684B1B68674A23F4802313607B685B68CF
:101B5C00002B13D0FFF7C4FC386108E0FFF7C0FC82
:101B6C0002463B69D31A642B01D90323FAE15D4B7E
:101B7C001B6803F40033002BF0D014E0FFF7B0FC2B
:101B8C00386108E0FFF7ACFC02463B69D31A642BC2
:101B9C0001D90323E6E1534B1B6803F40033002BFC
:101BAC00F0D100E000BF7B681B6803F00203002B40
:101BBC0063D04C4B5B6803F00C03002B0BD0494BF0
:101BCC005B6803F00C03082B1CD1464B5B6803F4D9
:101BDC008033002B16D1434B1B6803F00203002B00
:101BEC0005D07B681B69012B01D00123BAE13D4B69
:101BFC001B6823F0F8027B685B69DB0039491343EF
:101C0C000B603AE07B681B69002B20D0364B01221D
:101C1C001A60FFF765FC386108E0FFF761FC0246CB
:101C2C003B69D31A022B01D903239BE12D4B1B6873
:101C3C0003F00203002BF0D02A4B1B6823F0F802B0
:101C4C007B685B69DB00274913430B6015E0264B6F
:101C5C0000221A60FFF744FC386108E0FFF740FCF3
:101C6C0002463B69D31A022B01D903237AE11D4B9F
:101C7C001B6803F00203002BF0D17B681B6803F098
:101C8C000803002B3AD07B689B69002B19D0174BAB
:101C9C0001221A60FFF724FC386108E0FFF720FCF2
:101CAC0002463B69D31A022B01D903235AE10D4B8F
:101CBC005B6A03F00203002BF0D0012000F0A6FABF
:101CCC001CE00A4B00221A60FFF70AFC38610FE097
:101CDC00FFF706FC02463B69D31A022B08D90323F3
:101CEC0040E100BF0010024000004242800442422A
:101CFC009E4B5B6A03F00203002BE9D17B681B68E7
:101D0C0003F00403002B00F0A6800023FB75974B17
:101D1C00DB6903F08053002B0DD1944BDB69934AA4
:101D2C0043F08053D361914BDB6903F08053BB606C
:101D3C00BB680123FB758E4B1B6803F48073002B6F
:101D4C0018D18B4B1B688A4A43F480731360FFF7DE
:101D5C00C7FB386108E0FFF7C3FB02463B69D31AA7
:101D6C00642B01D90323FDE0814B1B6803F48073C2
:101D7C00002BF0D07B68DB68012B06D17B4B1B6AF8
:101D8C007A4A43F0010313622DE07B68DB68002B79
:101D9C000CD1764B1B6A754A23F001031362734B0B
:101DAC001B6A724A23F0040313621CE07B68DB6835
:101DBC00052B0CD16D4B1B6A6C4A43F00403136268
:101DCC006A4B1B6A694A43F0010313620BE0674BD1
:101DDC001B6A664A23F001031362644B1B6A634A55
:101DEC0023F0040313627B68DB68002B15D0FFF72C
:101DFC0077FB38610AE0FFF773FB02463B69D31AA5
:101E0C0041F28832934201D90323ABE0574B1B6A52
:101E1C0003F00203002BEED014E0FFF761FB3861F6
:101E2C000AE0FFF75DFB02463B69D31A41F28832A8
:101E3C00934201D9032395E04C4B1B6A03F0020338
:101E4C00002BEED1FB7D012B05D1484BDB69474ABA
:101E5C0023F08053D3617B68DB69002B00F0818019
:101E6C00424B5B6803F00C03082B61D07B68DB6989
:101E7C00022B46D13F4B00221A60FFF731FB386131
:101E8C0008E0FFF72DFB02463B69D31A022B01D960
:101E9C00032367E0354B1B6803F00073002BF0D174
:101EAC007B681B6AB3F5803F08D1304B5B6823F429
:101EBC0000327B689B682D4913434B602B4B5B684E
:101ECC0023F474127B68196A7B685B6A0B4327499D
:101EDC0013434B60274B01221A60FFF701FB38615B
:101EEC0008E0FFF7FDFA02463B69D31A022B01D931
:101EFC00032337E01D4B1B6803F00073002BF0D05D
:101F0C002FE01C4B00221A60FFF7EAFA386108E058
:101F1C00FFF7E6FA02463B69D31A022B01D90323D9
:101F2C0020E0124B1B6803F00073002BF0D118E07B
:101F3C007B68DB69012B01D1012313E00B4B5B6840
:101F4C00FB60FB6803F480327B681B6A9A4206D103
:101F5C00FB6803F470127B685B6A9A4201D0012320
:101F6C0000E0002318461837BD4680BD0010024023
:101F7C00007000406000424280B584B000AF7860D1
:101F8C0039607B68002B01D10123D0E06A4B1B68C0
:101F9C0003F007033A689A4210D9674B1B6823F089
:101FAC00070265493B6813430B60634B1B6803F0E6
:101FBC0007033A689A4201D00123B8E07B681B689A
:101FCC0003F00203002B20D07B681B6803F0040392
:101FDC00002B05D0594B5B68584A43F4E0635360BF
:101FEC007B681B6803F00803002B05D0534B5B6820
:101FFC00524A43F460535360504B5B6823F0F00239
:10200C007B689B684D4913434B607B681B6803F0EE
:10201C000103002B40D07B685B68012B07D1474B39
:10202C001B6803F40033002B15D101237FE07B6880
:10203C005B68022B07D1414B1B6803F00073002B2C
:10204C0009D1012373E03D4B1B6803F00203002B05
:10205C0001D101236BE0394B5B6823F003027B68F1
:10206C005B68364913434B60FFF73AFAF8600AE0B5
:10207C00FFF736FA0246FB68D31A41F288329342D4
:10208C0001D9032353E02D4B5B6803F00C027B68F2
:10209C005B689B009A42EBD1274B1B6803F007034C
:1020AC003A689A4210D2244B1B6823F0070222494B
:1020BC003B6813430B60204B1B6803F007033A6823
:1020CC009A4201D0012332E07B681B6803F00403C1
:1020DC00002B08D0194B5B6823F4E0627B68DB684B
:1020EC00164913434B607B681B6803F00803002BF5
:1020FC0009D0124B5B6823F460527B681B69DB00D0
:10210C000E4913434B6000F021F802460B4B5B6801
:10211C001B0903F00F030A49CB5C22FA03F3094AAB
:10212C001360094B1B681846FFF798F900231846F3
:10213C001037BD4680BD00BF002002400010024099
:10214C0090310008700000207400002090B48AB018
:10215C0000AF2A4B3C1D0FCB84E80F0040F201234B
:10216C003B800023FB610023BB6100237B620023C7
:10217C007B6100233B62224B5B68FB61FB6903F0D4
:10218C000C03042B02D0082B03D02DE01D4B3B621B
:10219C002DE0FB699B0C03F00F0307F1280213449D
:1021AC0013F8243C7B61FB6903F48033002B13D0C0
:1021BC00134B5B685B0C03F0010307F1280213441B
:1021CC0013F8283CBB617B690E4A02FB03F2BB6926
:1021DC00B2FBF3F37B6204E07B690B4A02FB03F373
:1021EC007B627B6A3B6202E0064B3B6200BF3B6A50
:1021FC0018462837BD4690BC704700BF8031000898
:10220C000010024000127A0000093D0080B485B035
:10221C0000AF78600A4B1B680A4AA2FB03235B0AD7
:10222C007A6802FB03F3FB6000BFFB685A1EFA607E
:10223C00002BF9D100BF00BF1437BD4680BC7047DE
:10224C0070000020D34D621080B582B000AF786072
:10225C007B68002B01D1012341E07B6893F83D3072
:10226C00DBB2002B06D17B68002283F83C20786817
:10227C00FEF7B0FE7B68022283F83D207B681A686B
:10228C007B6804331946104600F028FC7B68012259
:10229C0083F846207B68012283F83E207B6801226C
:1022AC0083F83F207B68012283F840207B68012261
:1022BC0083F841207B68012283F842207B6801224D
:1022CC0083F843207B68012283F844207B68012239
:1022DC0083F845207B68012283F83D2000231846B3
:1022EC000837BD4680BD000080B485B000AF786073
:1022FC007B6893F83D30DBB2012B01D001233AE02F
:10230C007B68022283F83D207B681B68DA687B6857
:10231C001B6842F00102DA607B681B68184A934222
:10232C000ED07B681B68B3F1804F09D07B681B68AB
:10233C00144A934204D07B681B68134A934211D110
:10234C007B681B689B6803F00703FB60FB68062B2C
:10235C0010D07B681B681A687B681B6842F001020E
:10236C001A6007E07B681B681A687B681B6842F080
:10237C0001021A60002318461437BD4680BC704712
:10238C00002C0140000400400008004080B582B0E1
:10239C0000AF78607B68002B01D1012341E07B68A2
:1023AC0093F83D30DBB2002B06D17B68002283F81A
:1023BC003C20786800F039F87B68022283F83D20D5
:1023CC007B681A687B6804331946104600F086FB5C
:1023DC007B68012283F846207B68012283F83E202B
:1023EC007B68012283F83F207B68012283F8402020
:1023FC007B68012283F841207B68012283F842200C
:10240C007B68012283F843207B68012283F84420F7
:10241C007B68012283F845207B68012283F83D20EC
:10242C00002318460837BD4680BD80B483B000AF8A
:10243C00786000BF0C37BD4680BC704780B584B057
:10244C0000AF786039603B68002B09D17B6893F84A
:10245C003E30DBB2012B14BF01230023DBB222E0A0
:10246C003B68042B09D17B6893F83F30DBB2012B1E
:10247C0014BF01230023DBB215E03B68082B09D104
:10248C007B6893F84030DBB2012B14BF012300238F
:10249C00DBB208E07B6893F84130DBB2012B14BF50
:1024AC0001230023DBB2002B01D001235EE03B684B
:1024BC00002B04D17B68022283F83E2013E03B689A
:1024CC00042B04D17B68022283F83F200BE03B688D
:1024DC00082B04D17B68022283F8402003E07B6840
:1024EC00022283F841207B681B6801223968184658
:1024FC0000F074FD7B681B681E4A934207D17B6811
:10250C001B685A6C7B681B6842F400425A647B68F7
:10251C001B68184A93420ED07B681B68B3F1804F3E
:10252C0009D07B681B68144A934204D07B681B68F3
:10253C00124A934211D17B681B689B6803F0070316
:10254C00FB60FB68062B10D07B681B681A687B68E5
:10255C001B6842F001021A6007E07B681B681A686E
:10256C007B681B6842F001021A6000231846103782
:10257C00BD4680BD002C0140000400400008004016
:10258C0080B582B000AF78607B681B681B6903F074
:10259C000203022B22D17B681B68DB6803F0020369
:1025AC00022B1BD17B681B686FF002021A617B68DF
:1025BC0001221A777B681B689B6903F00303002BCD
:1025CC0003D0786800F06FFA05E0786800F062FAE2
:1025DC00786800F071FA7B6800221A777B681B68B8
:1025EC001B6903F00403042B22D17B681B68DB6896
:1025FC0003F00403042B1BD17B681B686FF00402EF
:10260C001A617B6802221A777B681B689B6903F44A
:10261C004073002B03D0786800F045FA05E0786829
:10262C0000F038FA786800F047FA7B6800221A77D5
:10263C007B681B681B6903F00803082B22D17B689D
:10264C001B68DB6803F00803082B1BD17B681B6835
:10265C006FF008021A617B6804221A777B681B688A
:10266C00DB6903F00303002B03D0786800F01BFA3E
:10267C0005E0786800F00EFA786800F01DFA7B68C7
:10268C0000221A777B681B681B6903F01003102B60
:10269C0022D17B681B68DB6803F01003102B1BD165
:1026AC007B681B686FF010021A617B6808221A772E
:1026BC007B681B68DB6903F44073002B03D07868DC
:1026CC0000F0F1F905E0786800F0E4F9786800F0C2
:1026DC00F3F97B6800221A777B681B681B6903F08F
:1026EC000103012B0ED17B681B68DB6803F001032F
:1026FC00012B07D17B681B686FF001021A617868A7
:10270C00FEF7AAFA7B681B681B6903F08003802B19
:10271C000ED17B681B68DB6803F08003802B07D12C
:10272C007B681B686FF080021A61786800F0E1FC2E
:10273C007B681B681B6903F04003402B0ED17B6840
:10274C001B68DB6803F04003402B07D17B681B68D8
:10275C006FF040021A61786800F0B7F97B681B686B
:10276C001B6903F02003202B0ED17B681B68DB68F0
:10277C0003F02003202B07D17B681B686FF020022D
:10278C001A61786800F0ACFC00BF0837BD4680BD0C
:10279C0080B584B000AFF860B9607A60FB6893F8DC
:1027AC003C30012B01D10223ACE0FB68012283F801
:1027BC003C207B680C2B00F29F8001A252F823F086
:1027CC00012800080529000805290008052900082A
:1027DC0041280008052900080529000805290008DA
:1027EC008328000805290008052900080529000888
:1027FC00C3280008FB681B68B968184600F0D0F9BC
:10280C00FB681B689A69FB681B6842F008029A61B6
:10281C00FB681B689A69FB681B6822F004029A61CA
:10282C00FB681B689969BB681A69FB681B680A43DB
:10283C009A6162E0FB681B68B968184600F016FAEA
:10284C00FB681B689A69FB681B6842F400629A611A
:10285C00FB681B689A69FB681B6822F480629A61AA
:10286C00FB681B689969BB681B691A02FB681B68CB
:10287C000A439A6141E0FB681B68B968184600F08E
:10288C005FFAFB681B68DA69FB681B6842F0080298
:10289C00DA61FB681B68DA69FB681B6822F00402CA
:1028AC00DA61FB681B68D969BB681A69FB681B682D
:1028BC000A43DA6121E0FB681B68B968184600F02E
:1028CC00A9FAFB681B68DA69FB681B6842F40062B2
:1028DC00DA61FB681B68DA69FB681B6822F48062AA
:1028EC00DA61FB681B68D969BB681B691A02FB6853
:1028FC001B680A43DA6100E000BFFB68002283F822
:10290C003C20002318461037BD4680BD80B584B0EE
:10291C0000AF786039607B6893F83C30012B01D1B3
:10292C000223B3E07B68012283F83C207B680222FF
:10293C0083F83D207B681B689B68FB60FB6823F079
:10294C007703FB60FB6823F47F43FB607B681B68A9
:10295C00FA689A603B681B68B3F5005F3ED0B3F52C
:10296C00005F00F28780B3F5805F00F08580B3F5DF
:10297C00805F7FD8702B1AD0702B7BD8602B50D0F7
:10298C00602B77D8502B3CD0502B73D8402B58D081
:10299C00402B6FD8302B64D0302B6BD8202B60D0D1
:1029AC00202B67D8002B5CD0102B5AD062E07B68B0
:1029BC0018683B6899683B685A683B68DB6800F0AC
:1029CC00EEFA7B681B689B68FB60FB6843F077033F
:1029DC00FB607B681B68FA689A604EE07B6818683D
:1029EC003B6899683B685A683B68DB6800F0D7FA2B
:1029FC007B681B689A687B681B6842F480429A600B
:102A0C003BE07B6818683B6859683B68DB681A4692
:102A1C0000F04EFA7B681B685021184600F0A5FAAE
:102A2C002BE07B6818683B6859683B68DB681A4682
:102A3C0000F06CFA7B681B686021184600F095FA70
:102A4C001BE07B6818683B6859683B68DB681A4672
:102A5C0000F02EFA7B681B684021184600F085FABE
:102A6C000BE07B681A683B681B681946104600F03F
:102A7C007CFA02E000BF00E000BF7B68012283F813
:102A8C003D207B68002283F83C2000231846103739
:102A9C00BD4680BD80B483B000AF786000BF0C37FA
:102AAC00BD4680BC704780B483B000AF786000BF77
:102ABC000C37BD4680BC704780B483B000AF7860E3
:102ACC0000BF0C37BD4680BC704780B483B000AFEC
:102ADC00786000BF0C37BD4680BC704780B485B0B1
:102AEC0000AF786039607B681B68FB607B68294AA3
:102AFC0093420BD07B68B3F1804F07D07B68264A9A
:102B0C00934203D07B68254A934208D1FB6823F09B
:102B1C007003FB603B685B68FA681343FB607B687F
:102B2C001C4A93420BD07B68B3F1804F07D07B6873
:102B3C00194A934203D07B68184A934208D1FB6828
:102B4C0023F44073FB603B68DB68FA681343FB605B
:102B5C00FB6823F080023B685B691343FB607B6876
:102B6C00FA681A603B689A687B68DA623B681A6894
:102B7C007B689A627B68074A934203D13B681A6967
:102B8C007B681A637B6801225A6100BF1437BD460B
:102B9C0080BC7047002C014000040040000800403D
:102BAC0080B487B000AF786039607B681B6A23F013
:102BBC0001027B681A627B681B6A7B617B685B68BD
:102BCC003B617B689B69FB60FB6823F07003FB60D7
:102BDC00FB6823F00303FB603B681B68FA68134334
:102BEC00FB607B6923F002037B613B689B687A691D
:102BFC0013437B617B681C4A93420CD17B6923F0A5
:102C0C0008037B613B68DB687A6913437B617B69F2
:102C1C0023F004037B617B68134A934211D13B6917
:102C2C0023F480733B613B6923F400733B613B6885
:102C3C005B693A6913433B613B689B693A6913438F
:102C4C003B617B683A695A607B68FA689A613B68B9
:102C5C005A687B685A637B687A691A6200BF1C37B2
:102C6C00BD4680BC704700BF002C014080B487B0CB
:102C7C0000AF786039607B681B6A23F010027B68B8
:102C8C001A627B681B6A7B617B685B683B617B6853
:102C9C009B69FB60FB6823F4E043FB60FB6823F457
:102CAC004073FB603B681B681B02FA681343FB60B4
:102CBC007B6923F020037B613B689B681B017A696D
:102CCC0013437B617B681D4A93420DD17B6923F0D2
:102CDC0080037B613B68DB681B017A6913437B6172
:102CEC007B6923F040037B617B68144A934213D1C8
:102CFC003B6923F480633B613B6923F400633B61D4
:102D0C003B685B699B003A6913433B613B689B6979
:102D1C009B003A6913433B617B683A695A607B6854
:102D2C00FA689A613B685A687B689A637B687A692F
:102D3C001A6200BF1C37BD4680BC7047002C014096
:102D4C0080B487B000AF786039607B681B6A23F46D
:102D5C0080727B681A627B681B6A7B617B685B682C
:102D6C003B617B68DB69FB60FB6823F07003FB60F5
:102D7C00FB6823F00303FB603B681B68FA68134392
:102D8C00FB607B6923F400737B613B689B681B02CF
:102D9C007A6913437B617B681D4A93420DD17B6931
:102DAC0023F400637B613B68DB681B027A69134385
:102DBC007B617B6923F480637B617B68144A93425B
:102DCC0013D13B6923F480533B613B6923F40053DB
:102DDC003B613B685B691B013A6913433B613B6890
:102DEC009B691B013A6913433B617B683A695A60E2
:102DFC007B68FA68DA613B685A687B68DA637B68DF
:102E0C007A691A6200BF1C37BD4680BC704700BF90
:102E1C00002C014080B487B000AF786039607B68CB
:102E2C001B6A23F480527B681A627B681B6A3B61C5
:102E3C007B685B687B617B68DB69FB60FB6823F408
:102E4C00E043FB60FB6823F44073FB603B681B684A
:102E5C001B02FA681343FB603B6923F400533B618C
:102E6C003B689B681B033A6913433B617B680F4AC1
:102E7C00934209D17B6923F480437B613B685B6996
:102E8C009B017A6913437B617B687A695A607B6822
:102E9C00FA68DA613B685A687B681A647B683A693D
:102EAC001A6200BF1C37BD4680BC7047002C014025
:102EBC0080B487B000AFF860B9607A60FB681B6AB9
:102ECC007B61FB681B6A23F00102FB681A62FB68DA
:102EDC009B693B613B6923F0F0033B617B681B0101
:102EEC003A6913433B617B6923F00A037B617A697E
:102EFC00BB6813437B61FB683A699A61FB687A692A
:102F0C001A6200BF1C37BD4680BC704780B487B0C6
:102F1C0000AFF860B9607A60FB681B6A23F010029E
:102F2C00FB681A62FB689B697B61FB681B6A3B61EF
:102F3C007B6923F470437B617B681B037A691343C1
:102F4C007B613B6923F0A0033B61BB681B013A69C1
:102F5C0013433B61FB687A699A61FB683A691A62B0
:102F6C0000BF1C37BD4680BC704780B485B000AF35
:102F7C00786039607B689B68FB60FB6823F07003AA
:102F8C00FB603A68FB68134343F00703FB607B6804
:102F9C00FA689A6000BF1437BD4680BC704780B495
:102FAC0087B000AFF860B9607A603B60FB689B68E3
:102FBC007B617B6923F47F437B613B681A027B68EE
:102FCC001A43BB6813437A6913437B61FB687A69C4
:102FDC009A6000BF1C37BD4680BC704780B487B078
:102FEC0000AFF860B9607A60BB6803F01F03012280
:102FFC0002FA03F37B61FB681A6A7B69DB431A40B4
:10300C00FB681A62FB681A6ABB6803F01F037968D5
:10301C0001FA03F31A43FB681A6200BF1C37BD4662
:10302C0080BC704780B485B000AF786039607B6835
:10303C0093F83C30012B01D1022346E07B6801223E
:10304C0083F83C207B68022283F83D207B681B6858
:10305C005B68FB607B681B689B68BB60FB6823F04C
:10306C007003FB603B681B68FA681343FB607B686A
:10307C001B68FA685A607B681B68164A93420ED02C
:10308C007B681B68B3F1804F09D07B681B68124AC0
:10309C00934204D07B681B68104A93420CD1BB68E6
:1030AC0023F08003BB603B685B68BA681343BB606A
:1030BC007B681B68BA689A607B68012283F83D20A4
:1030CC007B68002283F83C20002318461437BD4649
:1030DC0080BC7047002C01400004004000080040F8
:1030EC0080B483B000AF786000BF0C37BD4680BCA5
:1030FC00704780B483B000AF786000BF0C37BD461A
:10310C0080BC704770B500260C4D0D4C641BA41090
:10311C00A64209D100F022F800260A4D0A4C641B85
:10312C00A410A64205D170BD55F8043B9847013652
:10313C00EEE755F8043B98470136F2E7A03100085A
:10314C00A0310008A0310008A43100080346024455
:10315C00934200D1704703F8011BF9E7F8B500BFA3
:10316C00F8BC08BC9E467047F8B500BFF8BC08BC5C
:04317C009E467047B4
:1031800002030405060708090A0B0C0D0E0F1010A8
:103190000000000000000000010203040607080907
:0431A00031010008F1
:0431A4000D01000811
:1031A80014000000140000001400000014000000C7
:1031B8000100000001000000010000000100000003
:1031C80001000000010000000100000001000000F3
:1031D80001000000010000000100000001000000E3
:1031E80001000000010000000100000001000000D3
:1031F8000A0000000C000000204E0000983A000071
:1032080088130000E80300001E000000B80B00004F
:0C3218000024F400100000000100000081
:04000005080013F1EB
:00000001FF
